{
  "contractName": "Voting",
  "abi": [
    {
      "constant": true,
      "inputs": [
        {
          "name": "candidate",
          "type": "bytes32"
        }
      ],
      "name": "totalVotesFor",
      "outputs": [
        {
          "name": "",
          "type": "uint8"
        }
      ],
      "payable": false,
      "stateMutability": "view",
      "type": "function"
    },
    {
      "constant": true,
      "inputs": [
        {
          "name": "candidate",
          "type": "bytes32"
        }
      ],
      "name": "validCandidate",
      "outputs": [
        {
          "name": "",
          "type": "bool"
        }
      ],
      "payable": false,
      "stateMutability": "view",
      "type": "function"
    },
    {
      "constant": true,
      "inputs": [
        {
          "name": "",
          "type": "bytes32"
        }
      ],
      "name": "votesReceived",
      "outputs": [
        {
          "name": "",
          "type": "uint8"
        }
      ],
      "payable": false,
      "stateMutability": "view",
      "type": "function"
    },
    {
      "constant": true,
      "inputs": [
        {
          "name": "",
          "type": "uint256"
        }
      ],
      "name": "candidateList",
      "outputs": [
        {
          "name": "",
          "type": "bytes32"
        }
      ],
      "payable": false,
      "stateMutability": "view",
      "type": "function"
    },
    {
      "constant": false,
      "inputs": [
        {
          "name": "candidate",
          "type": "bytes32"
        }
      ],
      "name": "voteForCandidate",
      "outputs": [],
      "payable": false,
      "stateMutability": "nonpayable",
      "type": "function"
    },
    {
      "inputs": [
        {
          "name": "candidateNames",
          "type": "bytes32[]"
        }
      ],
      "payable": false,
      "stateMutability": "nonpayable",
      "type": "constructor"
    },
    {
      "anonymous": false,
      "inputs": [
        {
          "indexed": false,
          "name": "victim",
          "type": "address"
        }
      ],
      "name": "LogTotalVotesFor",
      "type": "event"
    }
  ],
  "bytecode": "0x6060604052341561000f57600080fd5b6040516103de3803806103de833981016040528080518201919050508060019080519060200190610041929190610048565b50506100c0565b82805482825590600052602060002090810192821561008a579160200282015b82811115610089578251829060001916905591602001919060010190610068565b5b509050610097919061009b565b5090565b6100bd91905b808211156100b95760008160009055506001016100a1565b5090565b90565b61030f806100cf6000396000f30060606040526004361061006d576000357c0100000000000000000000000000000000000000000000000000000000900463ffffffff1680632f265cf714610072578063392e6678146100b35780637021939f146100f2578063b13c744b14610133578063cc9ab26714610172575b600080fd5b341561007d57600080fd5b610097600480803560001916906020019091905050610199565b604051808260ff1660ff16815260200191505060405180910390f35b34156100be57600080fd5b6100d86004808035600019169060200190919050506101e0565b604051808215151515815260200191505060405180910390f35b34156100fd57600080fd5b610117600480803560001916906020019091905050610240565b604051808260ff1660ff16815260200191505060405180910390f35b341561013e57600080fd5b6101546004808035906020019091905050610260565b60405180826000191660001916815260200191505060405180910390f35b341561017d57600080fd5b610197600480803560001916906020019091905050610284565b005b6000816101a5816101e0565b15156101b057600080fd5b600080846000191660001916815260200190815260200160002060009054906101000a900460ff16915050919050565b600080600090505b6001805490508110156102355760018181548110151561020457fe5b9060005260206000209001546000191683600019161415610228576001915061023a565b80806001019150506101e8565b600091505b50919050565b60006020528060005260406000206000915054906101000a900460ff1681565b60018181548110151561026f57fe5b90600052602060002090016000915090505481565b8061028e816101e0565b151561029957600080fd5b6001600080846000191660001916815260200190815260200160002060008282829054906101000a900460ff160192506101000a81548160ff021916908360ff16021790555050505600a165627a7a723058205feb39cb89f139caddbfbbe5bf0fa3314dcfc3450926c52697f1ccf9cbc35e660029",
  "source": "pragma solidity ^0.4.15;\n\ncontract Voting {\n    /*Variaveis de Estado*/\n    \n    // dicionários de votos\n    mapping (bytes32 => uint8) public votesReceived;\n    //vetor de candidatos\n    bytes32[] public candidateList;\n\n    event LogTotalVotesFor(address victim);\n   \n    /*Construtor*/\n    function Voting (bytes32[] candidateNames) public {\n        candidateList = candidateNames;\n    }\n    \n    /*Modifiers*/\n    modifier onlyValidCandidate(bytes32 candidate) {\n        require(validCandidate(candidate));\n        _;\n    }\n\n    /*funções*/\n    function totalVotesFor (bytes32 candidate) public view onlyValidCandidate(candidate) returns(uint8) {\n        return votesReceived[candidate];\n    }\n\n    function voteForCandidate (bytes32 candidate) public onlyValidCandidate(candidate) {\n        //require(no overflow)\n        votesReceived[candidate] += 1;\n    }\n    \n    function validCandidate (bytes32 candidate) public view returns(bool) {\n        for (uint i = 0; i < candidateList.length; i++) {\n            if (candidate == candidateList[i]) {\n                return true;\n            }\n        }\n        return false;\n    }\n\n}",
  "sourcePath": "/Users/mac/bootcampBlockchain/voting/contracts/Voting.sol",
  "compiler": {
    "name": "solc",
    "version": "0.4.18+commit.9cf6e910.Emscripten.clang"
  },
  "schemaVersion": "1.0.1",
  "updatedAt": "2017-11-16T19:12:31.744Z"
}